{
  "_format": "hh-sol-artifact-1",
  "contractName": "Greeter",
  "sourceName": "contracts/Greeter.sol",
  "abi": [
    {
      "inputs": [
        {
          "internalType": "string",
          "name": "_greeting",
          "type": "string"
        }
      ],
      "stateMutability": "nonpayable",
      "type": "constructor"
    },
    {
      "inputs": [],
      "name": "greet",
      "outputs": [
        {
          "internalType": "string",
          "name": "",
          "type": "string"
        }
      ],
      "stateMutability": "view",
      "type": "function"
    },
    {
      "inputs": [
        {
          "internalType": "string",
          "name": "_greeting",
          "type": "string"
        }
      ],
      "name": "setGreeting",
      "outputs": [],
      "stateMutability": "nonpayable",
      "type": "function"
    }
  ],
  "bytecode": "0x60806040523480156200001157600080fd5b506040516200125138038062001251833981810160405281019062000037919062000374565b620000f96040518060600160405280602281526020016200122f60229139600080546200006490620003f4565b80601f01602080910402602001604051908101604052809291908181526020018280546200009290620003f4565b8015620000e35780601f10620000b757610100808354040283529160200191620000e3565b820191906000526020600020905b815481529060010190602001808311620000c557829003601f168201915b50505050506200011260201b620002071760201c565b80600090816200010a919062000610565b505062000784565b620001b482826040516024016200012b92919062000749565b6040516020818303038152906040527f4b5c4277000000000000000000000000000000000000000000000000000000007bffffffffffffffffffffffffffffffffffffffffffffffffffffffff19166020820180517bffffffffffffffffffffffffffffffffffffffffffffffffffffffff8381831617835250505050620001b860201b60201c565b5050565b60008151905060006a636f6e736f6c652e6c6f679050602083016000808483855afa5050505050565b6000604051905090565b600080fd5b600080fd5b600080fd5b600080fd5b6000601f19601f8301169050919050565b7f4e487b7100000000000000000000000000000000000000000000000000000000600052604160045260246000fd5b6200024a82620001ff565b810181811067ffffffffffffffff821117156200026c576200026b62000210565b5b80604052505050565b600062000281620001e1565b90506200028f82826200023f565b919050565b600067ffffffffffffffff821115620002b257620002b162000210565b5b620002bd82620001ff565b9050602081019050919050565b60005b83811015620002ea578082015181840152602081019050620002cd565b60008484015250505050565b60006200030d620003078462000294565b62000275565b9050828152602081018484840111156200032c576200032b620001fa565b5b62000339848285620002ca565b509392505050565b600082601f830112620003595762000358620001f5565b5b81516200036b848260208601620002f6565b91505092915050565b6000602082840312156200038d576200038c620001eb565b5b600082015167ffffffffffffffff811115620003ae57620003ad620001f0565b5b620003bc8482850162000341565b91505092915050565b7f4e487b7100000000000000000000000000000000000000000000000000000000600052602260045260246000fd5b600060028204905060018216806200040d57607f821691505b602082108103620004235762000422620003c5565b5b50919050565b600081519050919050565b60008190508160005260206000209050919050565b60006020601f8301049050919050565b600082821b905092915050565b600060088302620004987fffffffffffffffffffffffffffffffffffffffffffffffffffffffffffffffff8262000459565b620004a4868362000459565b95508019841693508086168417925050509392505050565b6000819050919050565b6000819050919050565b6000620004f1620004eb620004e584620004bc565b620004c6565b620004bc565b9050919050565b6000819050919050565b6200050d83620004d0565b620005256200051c82620004f8565b84845462000466565b825550505050565b600090565b6200053c6200052d565b6200054981848462000502565b505050565b5b8181101562000571576200056560008262000532565b6001810190506200054f565b5050565b601f821115620005c0576200058a8162000434565b620005958462000449565b81016020851015620005a5578190505b620005bd620005b48562000449565b8301826200054e565b50505b505050565b600082821c905092915050565b6000620005e560001984600802620005c5565b1980831691505092915050565b6000620006008383620005d2565b9150826002028217905092915050565b6200061b8262000429565b67ffffffffffffffff81111562000637576200063662000210565b5b620006438254620003f4565b6200065082828562000575565b600060209050601f83116001811462000688576000841562000673578287015190505b6200067f8582620005f2565b865550620006ef565b601f198416620006988662000434565b60005b82811015620006c2578489015182556001820191506020850194506020810190506200069b565b86831015620006e25784890151620006de601f891682620005d2565b8355505b6001600288020188555050505b505050505050565b600082825260208201905092915050565b6000620007158262000429565b620007218185620006f7565b935062000733818560208601620002ca565b6200073e81620001ff565b840191505092915050565b6000604082019050818103600083015262000765818562000708565b905081810360208301526200077b818462000708565b90509392505050565b610a9b80620007946000396000f3fe608060405234801561001057600080fd5b50600436106100365760003560e01c8063a41368621461003b578063cfae321714610057575b600080fd5b61005560048036038101906100509190610564565b610075565b005b61005f610136565b60405161006c919061062c565b60405180910390f35b6101236040518060600160405280602d8152602001610a39602d9139336000805461009f9061067d565b80601f01602080910402602001604051908101604052809291908181526020018280546100cb9061067d565b80156101185780601f106100ed57610100808354040283529160200191610118565b820191906000526020600020905b8154815290600101906020018083116100fb57829003601f168201915b5050505050846102a3565b80600090816101329190610864565b5050565b60606101776040518060400160405280600a81526020017f477265657465642025730000000000000000000000000000000000000000000081525033610345565b600080546101849061067d565b80601f01602080910402602001604051908101604052809291908181526020018280546101b09061067d565b80156101fd5780601f106101d2576101008083540402835291602001916101fd565b820191906000526020600020905b8154815290600101906020018083116101e057829003601f168201915b5050505050905090565b61029f828260405160240161021d929190610936565b6040516020818303038152906040527f4b5c4277000000000000000000000000000000000000000000000000000000007bffffffffffffffffffffffffffffffffffffffffffffffffffffffff19166020820180517bffffffffffffffffffffffffffffffffffffffffffffffffffffffff83818316178352505050506103e1565b5050565b61033f848484846040516024016102bd94939291906109ae565b6040516020818303038152906040527f245986f2000000000000000000000000000000000000000000000000000000007bffffffffffffffffffffffffffffffffffffffffffffffffffffffff19166020820180517bffffffffffffffffffffffffffffffffffffffffffffffffffffffff83818316178352505050506103e1565b50505050565b6103dd828260405160240161035b929190610a08565b6040516020818303038152906040527f319af333000000000000000000000000000000000000000000000000000000007bffffffffffffffffffffffffffffffffffffffffffffffffffffffff19166020820180517bffffffffffffffffffffffffffffffffffffffffffffffffffffffff83818316178352505050506103e1565b5050565b60008151905060006a636f6e736f6c652e6c6f679050602083016000808483855afa5050505050565b6000604051905090565b600080fd5b600080fd5b600080fd5b600080fd5b6000601f19601f8301169050919050565b7f4e487b7100000000000000000000000000000000000000000000000000000000600052604160045260246000fd5b61047182610428565b810181811067ffffffffffffffff821117156104905761048f610439565b5b80604052505050565b60006104a361040a565b90506104af8282610468565b919050565b600067ffffffffffffffff8211156104cf576104ce610439565b5b6104d882610428565b9050602081019050919050565b82818337600083830152505050565b6000610507610502846104b4565b610499565b90508281526020810184848401111561052357610522610423565b5b61052e8482856104e5565b509392505050565b600082601f83011261054b5761054a61041e565b5b813561055b8482602086016104f4565b91505092915050565b60006020828403121561057a57610579610414565b5b600082013567ffffffffffffffff81111561059857610597610419565b5b6105a484828501610536565b91505092915050565b600081519050919050565b600082825260208201905092915050565b60005b838110156105e75780820151818401526020810190506105cc565b60008484015250505050565b60006105fe826105ad565b61060881856105b8565b93506106188185602086016105c9565b61062181610428565b840191505092915050565b6000602082019050818103600083015261064681846105f3565b905092915050565b7f4e487b7100000000000000000000000000000000000000000000000000000000600052602260045260246000fd5b6000600282049050600182168061069557607f821691505b6020821081036106a8576106a761064e565b5b50919050565b60008190508160005260206000209050919050565b60006020601f8301049050919050565b600082821b905092915050565b6000600883026107107fffffffffffffffffffffffffffffffffffffffffffffffffffffffffffffffff826106d3565b61071a86836106d3565b95508019841693508086168417925050509392505050565b6000819050919050565b6000819050919050565b600061076161075c61075784610732565b61073c565b610732565b9050919050565b6000819050919050565b61077b83610746565b61078f61078782610768565b8484546106e0565b825550505050565b600090565b6107a4610797565b6107af818484610772565b505050565b5b818110156107d3576107c860008261079c565b6001810190506107b5565b5050565b601f821115610818576107e9816106ae565b6107f2846106c3565b81016020851015610801578190505b61081561080d856106c3565b8301826107b4565b50505b505050565b600082821c905092915050565b600061083b6000198460080261081d565b1980831691505092915050565b6000610854838361082a565b9150826002028217905092915050565b61086d826105ad565b67ffffffffffffffff81111561088657610885610439565b5b610890825461067d565b61089b8282856107d7565b600060209050601f8311600181146108ce57600084156108bc578287015190505b6108c68582610848565b86555061092e565b601f1984166108dc866106ae565b60005b82811015610904578489015182556001820191506020850194506020810190506108df565b86831015610921578489015161091d601f89168261082a565b8355505b6001600288020188555050505b505050505050565b6000604082019050818103600083015261095081856105f3565b9050818103602083015261096481846105f3565b90509392505050565b600073ffffffffffffffffffffffffffffffffffffffff82169050919050565b60006109988261096d565b9050919050565b6109a88161098d565b82525050565b600060808201905081810360008301526109c881876105f3565b90506109d7602083018661099f565b81810360408301526109e981856105f3565b905081810360608301526109fd81846105f3565b905095945050505050565b60006040820190508181036000830152610a2281856105f3565b9050610a31602083018461099f565b939250505056fe2573206973206368616e67696e6720746865206772656574696e672066726f6d202725732720746f2027257327a2646970667358221220d521298a70d1b933fddc93c67e8b36368bb36f162a5c19e5251c1532eec449df64736f6c634300081100334465706c6f79696e67206120477265657465722077697468206772656574696e673a",
  "linkReferences": {},
  "deployedLinkReferences": {}
}